{
	"contracts/lottery.sol": {
		"Lottery": {
			"abi": [
				{
					"inputs": [],
					"stateMutability": "nonpayable",
					"type": "constructor"
				},
				{
					"inputs": [],
					"name": "Winner",
					"outputs": [],
					"stateMutability": "nonpayable",
					"type": "function"
				},
				{
					"inputs": [
						{
							"internalType": "uint256",
							"name": "",
							"type": "uint256"
						}
					],
					"name": "participants",
					"outputs": [
						{
							"internalType": "address payable",
							"name": "",
							"type": "address"
						}
					],
					"stateMutability": "view",
					"type": "function"
				},
				{
					"stateMutability": "payable",
					"type": "receive"
				}
			],
			"devdoc": {
				"kind": "dev",
				"methods": {},
				"version": 1
			},
			"evm": {
				"assembly": "    /* \"contracts/lottery.sol\":35:1321  contract Lottery{... */\n  mstore(0x40, 0x80)\n    /* \"contracts/lottery.sol\":171:213  0xdD870fA1b7C4700F2BD7f44238821C26f7392148 */\n  0xdd870fa1b7c4700f2bd7f44238821c26f7392148\n    /* \"contracts/lottery.sol\":130:214  address payable internal store = payable(0xdD870fA1b7C4700F2BD7f44238821C26f7392148) */\n  0x02\n  exp(0x0100, 0x00)\n  dup2\n  sload\n  dup2\n  0xffffffffffffffffffffffffffffffffffffffff\n  mul\n  not\n  and\n  swap1\n  dup4\n  0xffffffffffffffffffffffffffffffffffffffff\n  and\n  mul\n  or\n  swap1\n  sstore\n  pop\n    /* \"contracts/lottery.sol\":266:325  constructor(){... */\n  callvalue\n  dup1\n  iszero\n  tag_1\n  jumpi\n  0x00\n  dup1\n  revert\ntag_1:\n  pop\n    /* \"contracts/lottery.sol\":306:316  msg.sender */\n  caller\n    /* \"contracts/lottery.sol\":290:295  admin */\n  0x01\n  0x00\n    /* \"contracts/lottery.sol\":290:317  admin = payable(msg.sender) */\n  0x0100\n  exp\n  dup2\n  sload\n  dup2\n  0xffffffffffffffffffffffffffffffffffffffff\n  mul\n  not\n  and\n  swap1\n  dup4\n  0xffffffffffffffffffffffffffffffffffffffff\n  and\n  mul\n  or\n  swap1\n  sstore\n  pop\n    /* \"contracts/lottery.sol\":35:1321  contract Lottery{... */\n  dataSize(sub_0)\n  dup1\n  dataOffset(sub_0)\n  0x00\n  codecopy\n  0x00\n  return\nstop\n\nsub_0: assembly {\n        /* \"contracts/lottery.sol\":35:1321  contract Lottery{... */\n      mstore(0x40, 0x80)\n      jumpi(tag_1, lt(calldatasize, 0x04))\n      shr(0xe0, calldataload(0x00))\n      dup1\n      0x35c1d349\n      eq\n      tag_3\n      jumpi\n      dup1\n      0xb2b98ed2\n      eq\n      tag_4\n      jumpi\n      jump(tag_2)\n    tag_1:\n      jumpi(tag_2, calldatasize)\n        /* \"contracts/lottery.sol\":431:438  1 ether */\n      0x0de0b6b3a7640000\n        /* \"contracts/lottery.sol\":418:427  msg.value */\n      callvalue\n        /* \"contracts/lottery.sol\":418:438  msg.value == 1 ether */\n      eq\n        /* \"contracts/lottery.sol\":410:481  require(msg.value == 1 ether, \"exact 1 Ether is the participation fee\") */\n      tag_7\n      jumpi\n      mload(0x40)\n      0x08c379a000000000000000000000000000000000000000000000000000000000\n      dup2\n      mstore\n      0x04\n      add\n      tag_8\n      swap1\n      tag_9\n      jump\t// in\n    tag_8:\n      mload(0x40)\n      dup1\n      swap2\n      sub\n      swap1\n      revert\n    tag_7:\n        /* \"contracts/lottery.sol\":514:519  admin */\n      0x01\n      0x00\n      swap1\n      sload\n      swap1\n      0x0100\n      exp\n      swap1\n      div\n      0xffffffffffffffffffffffffffffffffffffffff\n      and\n        /* \"contracts/lottery.sol\":500:519  msg.sender != admin */\n      0xffffffffffffffffffffffffffffffffffffffff\n      and\n        /* \"contracts/lottery.sol\":500:510  msg.sender */\n      caller\n        /* \"contracts/lottery.sol\":500:519  msg.sender != admin */\n      0xffffffffffffffffffffffffffffffffffffffff\n      and\n      sub\n        /* \"contracts/lottery.sol\":492:549  require(msg.sender != admin, \"Admin cannot participate!\") */\n      tag_10\n      jumpi\n      mload(0x40)\n      0x08c379a000000000000000000000000000000000000000000000000000000000\n      dup2\n      mstore\n      0x04\n      add\n      tag_11\n      swap1\n      tag_12\n      jump\t// in\n    tag_11:\n      mload(0x40)\n      dup1\n      swap2\n      sub\n      swap1\n      revert\n    tag_10:\n        /* \"contracts/lottery.sol\":560:572  participants */\n      0x00\n        /* \"contracts/lottery.sol\":586:596  msg.sender */\n      caller\n        /* \"contracts/lottery.sol\":560:598  participants.push(payable(msg.sender)) */\n      swap1\n      dup1\n      0x01\n      dup2\n      sload\n      add\n      dup1\n      dup3\n      sstore\n      dup1\n      swap2\n      pop\n      pop\n      0x01\n      swap1\n      sub\n      swap1\n      0x00\n      mstore\n      keccak256(0x00, 0x20)\n      add\n      0x00\n      swap1\n      swap2\n      swap1\n      swap2\n      swap1\n      swap2\n      0x0100\n      exp\n      dup2\n      sload\n      dup2\n      0xffffffffffffffffffffffffffffffffffffffff\n      mul\n      not\n      and\n      swap1\n      dup4\n      0xffffffffffffffffffffffffffffffffffffffff\n      and\n      mul\n      or\n      swap1\n      sstore\n      stop\n        /* \"contracts/lottery.sol\":35:1321  contract Lottery{... */\n    tag_2:\n      0x00\n      dup1\n      revert\n        /* \"contracts/lottery.sol\":58:95  address payable[] public participants */\n    tag_3:\n      callvalue\n      dup1\n      iszero\n      tag_14\n      jumpi\n      0x00\n      dup1\n      revert\n    tag_14:\n      pop\n      tag_15\n      0x04\n      dup1\n      calldatasize\n      sub\n      dup2\n      add\n      swap1\n      tag_16\n      swap2\n      swap1\n      tag_17\n      jump\t// in\n    tag_16:\n      tag_18\n      jump\t// in\n    tag_15:\n      mload(0x40)\n      tag_19\n      swap2\n      swap1\n      tag_20\n      jump\t// in\n    tag_19:\n      mload(0x40)\n      dup1\n      swap2\n      sub\n      swap1\n      return\n        /* \"contracts/lottery.sol\":885:1306  function Winner() public{... */\n    tag_4:\n      callvalue\n      dup1\n      iszero\n      tag_21\n      jumpi\n      0x00\n      dup1\n      revert\n    tag_21:\n      pop\n      tag_22\n      tag_23\n      jump\t// in\n    tag_22:\n      stop\n        /* \"contracts/lottery.sol\":58:95  address payable[] public participants */\n    tag_18:\n      0x00\n      dup2\n      dup2\n      sload\n      dup2\n      lt\n      tag_24\n      jumpi\n      0x00\n      dup1\n      revert\n    tag_24:\n      swap1\n      0x00\n      mstore\n      keccak256(0x00, 0x20)\n      add\n      0x00\n      swap2\n      pop\n      sload\n      swap1\n      0x0100\n      exp\n      swap1\n      div\n      0xffffffffffffffffffffffffffffffffffffffff\n      and\n      dup2\n      jump\t// out\n        /* \"contracts/lottery.sol\":885:1306  function Winner() public{... */\n    tag_23:\n        /* \"contracts/lottery.sol\":942:947  admin */\n      0x01\n      0x00\n      swap1\n      sload\n      swap1\n      0x0100\n      exp\n      swap1\n      div\n      0xffffffffffffffffffffffffffffffffffffffff\n      and\n        /* \"contracts/lottery.sol\":928:947  msg.sender == admin */\n      0xffffffffffffffffffffffffffffffffffffffff\n      and\n        /* \"contracts/lottery.sol\":928:938  msg.sender */\n      caller\n        /* \"contracts/lottery.sol\":928:947  msg.sender == admin */\n      0xffffffffffffffffffffffffffffffffffffffff\n      and\n      eq\n        /* \"contracts/lottery.sol\":920:974  require(msg.sender == admin, \"You are not the admin!\") */\n      tag_27\n      jumpi\n      mload(0x40)\n      0x08c379a000000000000000000000000000000000000000000000000000000000\n      dup2\n      mstore\n      0x04\n      add\n      tag_28\n      swap1\n      tag_29\n      jump\t// in\n    tag_28:\n      mload(0x40)\n      dup1\n      swap2\n      sub\n      swap1\n      revert\n    tag_27:\n        /* \"contracts/lottery.sol\":1016:1017  2 */\n      0x02\n        /* \"contracts/lottery.sol\":993:1005  participants */\n      0x00\n        /* \"contracts/lottery.sol\":993:1012  participants.length */\n      dup1\n      sload\n      swap1\n      pop\n        /* \"contracts/lottery.sol\":993:1017  participants.length >= 2 */\n      lt\n      iszero\n        /* \"contracts/lottery.sol\":985:1078  require(participants.length >= 2, \"Not enough participants are participating in the lottery\") */\n      tag_30\n      jumpi\n      mload(0x40)\n      0x08c379a000000000000000000000000000000000000000000000000000000000\n      dup2\n      mstore\n      0x04\n      add\n      tag_31\n      swap1\n      tag_32\n      jump\t// in\n    tag_31:\n      mload(0x40)\n      dup1\n      swap2\n      sub\n      swap1\n      revert\n    tag_30:\n        /* \"contracts/lottery.sol\":1089:1111  address payable winner */\n      0x00\n        /* \"contracts/lottery.sol\":1131:1143  participants */\n      dup1\n        /* \"contracts/lottery.sol\":1155:1167  participants */\n      0x00\n        /* \"contracts/lottery.sol\":1155:1174  participants.length */\n      dup1\n      sload\n      swap1\n      pop\n        /* \"contracts/lottery.sol\":1144:1152  random() */\n      tag_33\n        /* \"contracts/lottery.sol\":1144:1150  random */\n      tag_34\n        /* \"contracts/lottery.sol\":1144:1152  random() */\n      jump\t// in\n    tag_33:\n        /* \"contracts/lottery.sol\":1144:1174  random() % participants.length */\n      tag_35\n      swap2\n      swap1\n      tag_36\n      jump\t// in\n    tag_35:\n        /* \"contracts/lottery.sol\":1131:1175  participants[random() % participants.length] */\n      dup2\n      sload\n      dup2\n      lt\n      tag_37\n      jumpi\n      tag_38\n      tag_39\n      jump\t// in\n    tag_38:\n    tag_37:\n      swap1\n      0x00\n      mstore\n      keccak256(0x00, 0x20)\n      add\n      0x00\n      swap1\n      sload\n      swap1\n      0x0100\n      exp\n      swap1\n      div\n      0xffffffffffffffffffffffffffffffffffffffff\n      and\n        /* \"contracts/lottery.sol\":1122:1175  winner = participants[random() % participants.length] */\n      swap1\n      pop\n        /* \"contracts/lottery.sol\":1186:1192  winner */\n      dup1\n        /* \"contracts/lottery.sol\":1186:1201  winner.transfer */\n      0xffffffffffffffffffffffffffffffffffffffff\n      and\n        /* \"contracts/lottery.sol\":1186:1212  winner.transfer(1.8 ether) */\n      0x08fc\n        /* \"contracts/lottery.sol\":1202:1211  1.8 ether */\n      0x18fae27693b40000\n        /* \"contracts/lottery.sol\":1186:1212  winner.transfer(1.8 ether) */\n      swap1\n      dup2\n      iszero\n      mul\n      swap1\n      mload(0x40)\n      0x00\n      mload(0x40)\n      dup1\n      dup4\n      sub\n      dup2\n      dup6\n      dup9\n      dup9\n      call\n      swap4\n      pop\n      pop\n      pop\n      pop\n      iszero\n      dup1\n      iszero\n      tag_42\n      jumpi\n      returndatasize\n      0x00\n      dup1\n      returndatacopy\n      revert(0x00, returndatasize)\n    tag_42:\n      pop\n        /* \"contracts/lottery.sol\":1223:1228  store */\n      0x02\n      0x00\n      swap1\n      sload\n      swap1\n      0x0100\n      exp\n      swap1\n      div\n      0xffffffffffffffffffffffffffffffffffffffff\n      and\n        /* \"contracts/lottery.sol\":1223:1237  store.transfer */\n      0xffffffffffffffffffffffffffffffffffffffff\n      and\n        /* \"contracts/lottery.sol\":1223:1248  store.transfer(0.2 ether) */\n      0x08fc\n        /* \"contracts/lottery.sol\":1238:1247  0.2 ether */\n      0x02c68af0bb140000\n        /* \"contracts/lottery.sol\":1223:1248  store.transfer(0.2 ether) */\n      swap1\n      dup2\n      iszero\n      mul\n      swap1\n      mload(0x40)\n      0x00\n      mload(0x40)\n      dup1\n      dup4\n      sub\n      dup2\n      dup6\n      dup9\n      dup9\n      call\n      swap4\n      pop\n      pop\n      pop\n      pop\n      iszero\n      dup1\n      iszero\n      tag_44\n      jumpi\n      returndatasize\n      0x00\n      dup1\n      returndatacopy\n      revert(0x00, returndatasize)\n    tag_44:\n      pop\n        /* \"contracts/lottery.sol\":1296:1297  0 */\n      0x00\n        /* \"contracts/lottery.sol\":1274:1298  new address payable[](0) */\n      0xffffffffffffffff\n      dup2\n      gt\n      iszero\n      tag_45\n      jumpi\n      tag_46\n      tag_47\n      jump\t// in\n    tag_46:\n    tag_45:\n      mload(0x40)\n      swap1\n      dup1\n      dup3\n      mstore\n      dup1\n      0x20\n      mul\n      0x20\n      add\n      dup3\n      add\n      0x40\n      mstore\n      dup1\n      iszero\n      tag_48\n      jumpi\n      dup2\n      0x20\n      add\n      0x20\n      dup3\n      mul\n      dup1\n      calldatasize\n      dup4\n      calldatacopy\n      dup1\n      dup3\n      add\n      swap2\n      pop\n      pop\n      swap1\n      pop\n    tag_48:\n      pop\n        /* \"contracts/lottery.sol\":1259:1271  participants */\n      0x00\n        /* \"contracts/lottery.sol\":1259:1298  participants = new address payable[](0) */\n      swap1\n      dup1\n      mload\n      swap1\n      0x20\n      add\n      swap1\n      tag_49\n      swap3\n      swap2\n      swap1\n      tag_50\n      jump\t// in\n    tag_49:\n      pop\n        /* \"contracts/lottery.sol\":909:1306  {... */\n      pop\n        /* \"contracts/lottery.sol\":885:1306  function Winner() public{... */\n      jump\t// out\n        /* \"contracts/lottery.sol\":670:830  function random() internal view returns(uint){... */\n    tag_34:\n        /* \"contracts/lottery.sol\":710:714  uint */\n      0x00\n        /* \"contracts/lottery.sol\":765:781  block.difficulty */\n      difficulty\n        /* \"contracts/lottery.sol\":783:798  block.timestamp */\n      timestamp\n        /* \"contracts/lottery.sol\":800:812  participants */\n      0x00\n        /* \"contracts/lottery.sol\":800:819  participants.length */\n      dup1\n      sload\n      swap1\n      pop\n        /* \"contracts/lottery.sol\":748:820  abi.encodePacked(block.difficulty, block.timestamp, participants.length) */\n      add(0x20, mload(0x40))\n      tag_52\n      swap4\n      swap3\n      swap2\n      swap1\n      tag_53\n      jump\t// in\n    tag_52:\n      mload(0x40)\n      0x20\n      dup2\n      dup4\n      sub\n      sub\n      dup2\n      mstore\n      swap1\n      0x40\n      mstore\n        /* \"contracts/lottery.sol\":738:821  keccak256(abi.encodePacked(block.difficulty, block.timestamp, participants.length)) */\n      dup1\n      mload\n      swap1\n      0x20\n      add\n      keccak256\n        /* \"contracts/lottery.sol\":733:822  uint(keccak256(abi.encodePacked(block.difficulty, block.timestamp, participants.length))) */\n      0x00\n      shr\n        /* \"contracts/lottery.sol\":726:822  return uint(keccak256(abi.encodePacked(block.difficulty, block.timestamp, participants.length))) */\n      swap1\n      pop\n        /* \"contracts/lottery.sol\":670:830  function random() internal view returns(uint){... */\n      swap1\n      jump\t// out\n    tag_50:\n      dup3\n      dup1\n      sload\n      dup3\n      dup3\n      sstore\n      swap1\n      0x00\n      mstore\n      keccak256(0x00, 0x20)\n      swap1\n      dup2\n      add\n      swap3\n      dup3\n      iszero\n      tag_54\n      jumpi\n      swap2\n      0x20\n      mul\n      dup3\n      add\n    tag_55:\n      dup3\n      dup2\n      gt\n      iszero\n      tag_56\n      jumpi\n      dup3\n      mload\n      dup3\n      exp(0x0100, 0x00)\n      dup2\n      sload\n      dup2\n      0xffffffffffffffffffffffffffffffffffffffff\n      mul\n      not\n      and\n      swap1\n      dup4\n      0xffffffffffffffffffffffffffffffffffffffff\n      and\n      mul\n      or\n      swap1\n      sstore\n      pop\n      swap2\n      0x20\n      add\n      swap2\n      swap1\n      0x01\n      add\n      swap1\n      jump(tag_55)\n    tag_56:\n    tag_54:\n      pop\n      swap1\n      pop\n      tag_57\n      swap2\n      swap1\n      tag_58\n      jump\t// in\n    tag_57:\n      pop\n      swap1\n      jump\t// out\n    tag_58:\n    tag_59:\n      dup1\n      dup3\n      gt\n      iszero\n      tag_60\n      jumpi\n      0x00\n      dup2\n      0x00\n      swap1\n      sstore\n      pop\n      0x01\n      add\n      jump(tag_59)\n    tag_60:\n      pop\n      swap1\n      jump\t// out\n        /* \"#utility.yul\":7:176   */\n    tag_61:\n        /* \"#utility.yul\":91:102   */\n      0x00\n        /* \"#utility.yul\":125:131   */\n      dup3\n        /* \"#utility.yul\":120:123   */\n      dup3\n        /* \"#utility.yul\":113:132   */\n      mstore\n        /* \"#utility.yul\":165:169   */\n      0x20\n        /* \"#utility.yul\":160:163   */\n      dup3\n        /* \"#utility.yul\":156:170   */\n      add\n        /* \"#utility.yul\":141:170   */\n      swap1\n      pop\n        /* \"#utility.yul\":7:176   */\n      swap3\n      swap2\n      pop\n      pop\n      jump\t// out\n        /* \"#utility.yul\":182:407   */\n    tag_62:\n        /* \"#utility.yul\":322:356   */\n      0x6578616374203120457468657220697320746865207061727469636970617469\n        /* \"#utility.yul\":318:319   */\n      0x00\n        /* \"#utility.yul\":310:316   */\n      dup3\n        /* \"#utility.yul\":306:320   */\n      add\n        /* \"#utility.yul\":299:357   */\n      mstore\n        /* \"#utility.yul\":391:399   */\n      0x6f6e206665650000000000000000000000000000000000000000000000000000\n        /* \"#utility.yul\":386:388   */\n      0x20\n        /* \"#utility.yul\":378:384   */\n      dup3\n        /* \"#utility.yul\":374:389   */\n      add\n        /* \"#utility.yul\":367:400   */\n      mstore\n        /* \"#utility.yul\":182:407   */\n      pop\n      jump\t// out\n        /* \"#utility.yul\":413:779   */\n    tag_63:\n        /* \"#utility.yul\":555:558   */\n      0x00\n        /* \"#utility.yul\":576:643   */\n      tag_86\n        /* \"#utility.yul\":640:642   */\n      0x26\n        /* \"#utility.yul\":635:638   */\n      dup4\n        /* \"#utility.yul\":576:643   */\n      tag_61\n      jump\t// in\n    tag_86:\n        /* \"#utility.yul\":569:643   */\n      swap2\n      pop\n        /* \"#utility.yul\":652:745   */\n      tag_87\n        /* \"#utility.yul\":741:744   */\n      dup3\n        /* \"#utility.yul\":652:745   */\n      tag_62\n      jump\t// in\n    tag_87:\n        /* \"#utility.yul\":770:772   */\n      0x40\n        /* \"#utility.yul\":765:768   */\n      dup3\n        /* \"#utility.yul\":761:773   */\n      add\n        /* \"#utility.yul\":754:773   */\n      swap1\n      pop\n        /* \"#utility.yul\":413:779   */\n      swap2\n      swap1\n      pop\n      jump\t// out\n        /* \"#utility.yul\":785:1204   */\n    tag_9:\n        /* \"#utility.yul\":951:955   */\n      0x00\n        /* \"#utility.yul\":989:991   */\n      0x20\n        /* \"#utility.yul\":978:987   */\n      dup3\n        /* \"#utility.yul\":974:992   */\n      add\n        /* \"#utility.yul\":966:992   */\n      swap1\n      pop\n        /* \"#utility.yul\":1038:1047   */\n      dup2\n        /* \"#utility.yul\":1032:1036   */\n      dup2\n        /* \"#utility.yul\":1028:1048   */\n      sub\n        /* \"#utility.yul\":1024:1025   */\n      0x00\n        /* \"#utility.yul\":1013:1022   */\n      dup4\n        /* \"#utility.yul\":1009:1026   */\n      add\n        /* \"#utility.yul\":1002:1049   */\n      mstore\n        /* \"#utility.yul\":1066:1197   */\n      tag_89\n        /* \"#utility.yul\":1192:1196   */\n      dup2\n        /* \"#utility.yul\":1066:1197   */\n      tag_63\n      jump\t// in\n    tag_89:\n        /* \"#utility.yul\":1058:1197   */\n      swap1\n      pop\n        /* \"#utility.yul\":785:1204   */\n      swap2\n      swap1\n      pop\n      jump\t// out\n        /* \"#utility.yul\":1210:1385   */\n    tag_64:\n        /* \"#utility.yul\":1350:1377   */\n      0x41646d696e2063616e6e6f742070617274696369706174652100000000000000\n        /* \"#utility.yul\":1346:1347   */\n      0x00\n        /* \"#utility.yul\":1338:1344   */\n      dup3\n        /* \"#utility.yul\":1334:1348   */\n      add\n        /* \"#utility.yul\":1327:1378   */\n      mstore\n        /* \"#utility.yul\":1210:1385   */\n      pop\n      jump\t// out\n        /* \"#utility.yul\":1391:1757   */\n    tag_65:\n        /* \"#utility.yul\":1533:1536   */\n      0x00\n        /* \"#utility.yul\":1554:1621   */\n      tag_92\n        /* \"#utility.yul\":1618:1620   */\n      0x19\n        /* \"#utility.yul\":1613:1616   */\n      dup4\n        /* \"#utility.yul\":1554:1621   */\n      tag_61\n      jump\t// in\n    tag_92:\n        /* \"#utility.yul\":1547:1621   */\n      swap2\n      pop\n        /* \"#utility.yul\":1630:1723   */\n      tag_93\n        /* \"#utility.yul\":1719:1722   */\n      dup3\n        /* \"#utility.yul\":1630:1723   */\n      tag_64\n      jump\t// in\n    tag_93:\n        /* \"#utility.yul\":1748:1750   */\n      0x20\n        /* \"#utility.yul\":1743:1746   */\n      dup3\n        /* \"#utility.yul\":1739:1751   */\n      add\n        /* \"#utility.yul\":1732:1751   */\n      swap1\n      pop\n        /* \"#utility.yul\":1391:1757   */\n      swap2\n      swap1\n      pop\n      jump\t// out\n        /* \"#utility.yul\":1763:2182   */\n    tag_12:\n        /* \"#utility.yul\":1929:1933   */\n      0x00\n        /* \"#utility.yul\":1967:1969   */\n      0x20\n        /* \"#utility.yul\":1956:1965   */\n      dup3\n        /* \"#utility.yul\":1952:1970   */\n      add\n        /* \"#utility.yul\":1944:1970   */\n      swap1\n      pop\n        /* \"#utility.yul\":2016:2025   */\n      dup2\n        /* \"#utility.yul\":2010:2014   */\n      dup2\n        /* \"#utility.yul\":2006:2026   */\n      sub\n        /* \"#utility.yul\":2002:2003   */\n      0x00\n        /* \"#utility.yul\":1991:2000   */\n      dup4\n        /* \"#utility.yul\":1987:2004   */\n      add\n        /* \"#utility.yul\":1980:2027   */\n      mstore\n        /* \"#utility.yul\":2044:2175   */\n      tag_95\n        /* \"#utility.yul\":2170:2174   */\n      dup2\n        /* \"#utility.yul\":2044:2175   */\n      tag_65\n      jump\t// in\n    tag_95:\n        /* \"#utility.yul\":2036:2175   */\n      swap1\n      pop\n        /* \"#utility.yul\":1763:2182   */\n      swap2\n      swap1\n      pop\n      jump\t// out\n        /* \"#utility.yul\":2269:2386   */\n    tag_67:\n        /* \"#utility.yul\":2378:2379   */\n      0x00\n        /* \"#utility.yul\":2375:2376   */\n      dup1\n        /* \"#utility.yul\":2368:2380   */\n      revert\n        /* \"#utility.yul\":2515:2592   */\n    tag_69:\n        /* \"#utility.yul\":2552:2559   */\n      0x00\n        /* \"#utility.yul\":2581:2586   */\n      dup2\n        /* \"#utility.yul\":2570:2586   */\n      swap1\n      pop\n        /* \"#utility.yul\":2515:2592   */\n      swap2\n      swap1\n      pop\n      jump\t// out\n        /* \"#utility.yul\":2598:2720   */\n    tag_70:\n        /* \"#utility.yul\":2671:2695   */\n      tag_101\n        /* \"#utility.yul\":2689:2694   */\n      dup2\n        /* \"#utility.yul\":2671:2695   */\n      tag_69\n      jump\t// in\n    tag_101:\n        /* \"#utility.yul\":2664:2669   */\n      dup2\n        /* \"#utility.yul\":2661:2696   */\n      eq\n        /* \"#utility.yul\":2651:2714   */\n      tag_102\n      jumpi\n        /* \"#utility.yul\":2710:2711   */\n      0x00\n        /* \"#utility.yul\":2707:2708   */\n      dup1\n        /* \"#utility.yul\":2700:2712   */\n      revert\n        /* \"#utility.yul\":2651:2714   */\n    tag_102:\n        /* \"#utility.yul\":2598:2720   */\n      pop\n      jump\t// out\n        /* \"#utility.yul\":2726:2865   */\n    tag_71:\n        /* \"#utility.yul\":2772:2777   */\n      0x00\n        /* \"#utility.yul\":2810:2816   */\n      dup2\n        /* \"#utility.yul\":2797:2817   */\n      calldataload\n        /* \"#utility.yul\":2788:2817   */\n      swap1\n      pop\n        /* \"#utility.yul\":2826:2859   */\n      tag_104\n        /* \"#utility.yul\":2853:2858   */\n      dup2\n        /* \"#utility.yul\":2826:2859   */\n      tag_70\n      jump\t// in\n    tag_104:\n        /* \"#utility.yul\":2726:2865   */\n      swap3\n      swap2\n      pop\n      pop\n      jump\t// out\n        /* \"#utility.yul\":2871:3200   */\n    tag_17:\n        /* \"#utility.yul\":2930:2936   */\n      0x00\n        /* \"#utility.yul\":2979:2981   */\n      0x20\n        /* \"#utility.yul\":2967:2976   */\n      dup3\n        /* \"#utility.yul\":2958:2965   */\n      dup5\n        /* \"#utility.yul\":2954:2977   */\n      sub\n        /* \"#utility.yul\":2950:2982   */\n      slt\n        /* \"#utility.yul\":2947:3066   */\n      iszero\n      tag_106\n      jumpi\n        /* \"#utility.yul\":2985:3064   */\n      tag_107\n      tag_67\n      jump\t// in\n    tag_107:\n        /* \"#utility.yul\":2947:3066   */\n    tag_106:\n        /* \"#utility.yul\":3105:3106   */\n      0x00\n        /* \"#utility.yul\":3130:3183   */\n      tag_108\n        /* \"#utility.yul\":3175:3182   */\n      dup5\n        /* \"#utility.yul\":3166:3172   */\n      dup3\n        /* \"#utility.yul\":3155:3164   */\n      dup6\n        /* \"#utility.yul\":3151:3173   */\n      add\n        /* \"#utility.yul\":3130:3183   */\n      tag_71\n      jump\t// in\n    tag_108:\n        /* \"#utility.yul\":3120:3183   */\n      swap2\n      pop\n        /* \"#utility.yul\":3076:3193   */\n      pop\n        /* \"#utility.yul\":2871:3200   */\n      swap3\n      swap2\n      pop\n      pop\n      jump\t// out\n        /* \"#utility.yul\":3206:3332   */\n    tag_72:\n        /* \"#utility.yul\":3243:3250   */\n      0x00\n        /* \"#utility.yul\":3283:3325   */\n      0xffffffffffffffffffffffffffffffffffffffff\n        /* \"#utility.yul\":3276:3281   */\n      dup3\n        /* \"#utility.yul\":3272:3326   */\n      and\n        /* \"#utility.yul\":3261:3326   */\n      swap1\n      pop\n        /* \"#utility.yul\":3206:3332   */\n      swap2\n      swap1\n      pop\n      jump\t// out\n        /* \"#utility.yul\":3338:3442   */\n    tag_73:\n        /* \"#utility.yul\":3383:3390   */\n      0x00\n        /* \"#utility.yul\":3412:3436   */\n      tag_111\n        /* \"#utility.yul\":3430:3435   */\n      dup3\n        /* \"#utility.yul\":3412:3436   */\n      tag_72\n      jump\t// in\n    tag_111:\n        /* \"#utility.yul\":3401:3436   */\n      swap1\n      pop\n        /* \"#utility.yul\":3338:3442   */\n      swap2\n      swap1\n      pop\n      jump\t// out\n        /* \"#utility.yul\":3448:3590   */\n    tag_74:\n        /* \"#utility.yul\":3551:3583   */\n      tag_113\n        /* \"#utility.yul\":3577:3582   */\n      dup2\n        /* \"#utility.yul\":3551:3583   */\n      tag_73\n      jump\t// in\n    tag_113:\n        /* \"#utility.yul\":3546:3549   */\n      dup3\n        /* \"#utility.yul\":3539:3584   */\n      mstore\n        /* \"#utility.yul\":3448:3590   */\n      pop\n      pop\n      jump\t// out\n        /* \"#utility.yul\":3596:3850   */\n    tag_20:\n        /* \"#utility.yul\":3705:3709   */\n      0x00\n        /* \"#utility.yul\":3743:3745   */\n      0x20\n        /* \"#utility.yul\":3732:3741   */\n      dup3\n        /* \"#utility.yul\":3728:3746   */\n      add\n        /* \"#utility.yul\":3720:3746   */\n      swap1\n      pop\n        /* \"#utility.yul\":3756:3843   */\n      tag_115\n        /* \"#utility.yul\":3840:3841   */\n      0x00\n        /* \"#utility.yul\":3829:3838   */\n      dup4\n        /* \"#utility.yul\":3825:3842   */\n      add\n        /* \"#utility.yul\":3816:3822   */\n      dup5\n        /* \"#utility.yul\":3756:3843   */\n      tag_74\n      jump\t// in\n    tag_115:\n        /* \"#utility.yul\":3596:3850   */\n      swap3\n      swap2\n      pop\n      pop\n      jump\t// out\n        /* \"#utility.yul\":3856:4028   */\n    tag_75:\n        /* \"#utility.yul\":3996:4020   */\n      0x596f7520617265206e6f74207468652061646d696e2100000000000000000000\n        /* \"#utility.yul\":3992:3993   */\n      0x00\n        /* \"#utility.yul\":3984:3990   */\n      dup3\n        /* \"#utility.yul\":3980:3994   */\n      add\n        /* \"#utility.yul\":3973:4021   */\n      mstore\n        /* \"#utility.yul\":3856:4028   */\n      pop\n      jump\t// out\n        /* \"#utility.yul\":4034:4400   */\n    tag_76:\n        /* \"#utility.yul\":4176:4179   */\n      0x00\n        /* \"#utility.yul\":4197:4264   */\n      tag_118\n        /* \"#utility.yul\":4261:4263   */\n      0x16\n        /* \"#utility.yul\":4256:4259   */\n      dup4\n        /* \"#utility.yul\":4197:4264   */\n      tag_61\n      jump\t// in\n    tag_118:\n        /* \"#utility.yul\":4190:4264   */\n      swap2\n      pop\n        /* \"#utility.yul\":4273:4366   */\n      tag_119\n        /* \"#utility.yul\":4362:4365   */\n      dup3\n        /* \"#utility.yul\":4273:4366   */\n      tag_75\n      jump\t// in\n    tag_119:\n        /* \"#utility.yul\":4391:4393   */\n      0x20\n        /* \"#utility.yul\":4386:4389   */\n      dup3\n        /* \"#utility.yul\":4382:4394   */\n      add\n        /* \"#utility.yul\":4375:4394   */\n      swap1\n      pop\n        /* \"#utility.yul\":4034:4400   */\n      swap2\n      swap1\n      pop\n      jump\t// out\n        /* \"#utility.yul\":4406:4825   */\n    tag_29:\n        /* \"#utility.yul\":4572:4576   */\n      0x00\n        /* \"#utility.yul\":4610:4612   */\n      0x20\n        /* \"#utility.yul\":4599:4608   */\n      dup3\n        /* \"#utility.yul\":4595:4613   */\n      add\n        /* \"#utility.yul\":4587:4613   */\n      swap1\n      pop\n        /* \"#utility.yul\":4659:4668   */\n      dup2\n        /* \"#utility.yul\":4653:4657   */\n      dup2\n        /* \"#utility.yul\":4649:4669   */\n      sub\n        /* \"#utility.yul\":4645:4646   */\n      0x00\n        /* \"#utility.yul\":4634:4643   */\n      dup4\n        /* \"#utility.yul\":4630:4647   */\n      add\n        /* \"#utility.yul\":4623:4670   */\n      mstore\n        /* \"#utility.yul\":4687:4818   */\n      tag_121\n        /* \"#utility.yul\":4813:4817   */\n      dup2\n        /* \"#utility.yul\":4687:4818   */\n      tag_76\n      jump\t// in\n    tag_121:\n        /* \"#utility.yul\":4679:4818   */\n      swap1\n      pop\n        /* \"#utility.yul\":4406:4825   */\n      swap2\n      swap1\n      pop\n      jump\t// out\n        /* \"#utility.yul\":4831:5074   */\n    tag_77:\n        /* \"#utility.yul\":4971:5005   */\n      0x4e6f7420656e6f756768207061727469636970616e7473206172652070617274\n        /* \"#utility.yul\":4967:4968   */\n      0x00\n        /* \"#utility.yul\":4959:4965   */\n      dup3\n        /* \"#utility.yul\":4955:4969   */\n      add\n        /* \"#utility.yul\":4948:5006   */\n      mstore\n        /* \"#utility.yul\":5040:5066   */\n      0x696369706174696e6720696e20746865206c6f74746572790000000000000000\n        /* \"#utility.yul\":5035:5037   */\n      0x20\n        /* \"#utility.yul\":5027:5033   */\n      dup3\n        /* \"#utility.yul\":5023:5038   */\n      add\n        /* \"#utility.yul\":5016:5067   */\n      mstore\n        /* \"#utility.yul\":4831:5074   */\n      pop\n      jump\t// out\n        /* \"#utility.yul\":5080:5446   */\n    tag_78:\n        /* \"#utility.yul\":5222:5225   */\n      0x00\n        /* \"#utility.yul\":5243:5310   */\n      tag_124\n        /* \"#utility.yul\":5307:5309   */\n      0x38\n        /* \"#utility.yul\":5302:5305   */\n      dup4\n        /* \"#utility.yul\":5243:5310   */\n      tag_61\n      jump\t// in\n    tag_124:\n        /* \"#utility.yul\":5236:5310   */\n      swap2\n      pop\n        /* \"#utility.yul\":5319:5412   */\n      tag_125\n        /* \"#utility.yul\":5408:5411   */\n      dup3\n        /* \"#utility.yul\":5319:5412   */\n      tag_77\n      jump\t// in\n    tag_125:\n        /* \"#utility.yul\":5437:5439   */\n      0x40\n        /* \"#utility.yul\":5432:5435   */\n      dup3\n        /* \"#utility.yul\":5428:5440   */\n      add\n        /* \"#utility.yul\":5421:5440   */\n      swap1\n      pop\n        /* \"#utility.yul\":5080:5446   */\n      swap2\n      swap1\n      pop\n      jump\t// out\n        /* \"#utility.yul\":5452:5871   */\n    tag_32:\n        /* \"#utility.yul\":5618:5622   */\n      0x00\n        /* \"#utility.yul\":5656:5658   */\n      0x20\n        /* \"#utility.yul\":5645:5654   */\n      dup3\n        /* \"#utility.yul\":5641:5659   */\n      add\n        /* \"#utility.yul\":5633:5659   */\n      swap1\n      pop\n        /* \"#utility.yul\":5705:5714   */\n      dup2\n        /* \"#utility.yul\":5699:5703   */\n      dup2\n        /* \"#utility.yul\":5695:5715   */\n      sub\n        /* \"#utility.yul\":5691:5692   */\n      0x00\n        /* \"#utility.yul\":5680:5689   */\n      dup4\n        /* \"#utility.yul\":5676:5693   */\n      add\n        /* \"#utility.yul\":5669:5716   */\n      mstore\n        /* \"#utility.yul\":5733:5864   */\n      tag_127\n        /* \"#utility.yul\":5859:5863   */\n      dup2\n        /* \"#utility.yul\":5733:5864   */\n      tag_78\n      jump\t// in\n    tag_127:\n        /* \"#utility.yul\":5725:5864   */\n      swap1\n      pop\n        /* \"#utility.yul\":5452:5871   */\n      swap2\n      swap1\n      pop\n      jump\t// out\n        /* \"#utility.yul\":5877:6057   */\n    tag_79:\n        /* \"#utility.yul\":5925:6002   */\n      0x4e487b7100000000000000000000000000000000000000000000000000000000\n        /* \"#utility.yul\":5922:5923   */\n      0x00\n        /* \"#utility.yul\":5915:6003   */\n      mstore\n        /* \"#utility.yul\":6022:6026   */\n      0x12\n        /* \"#utility.yul\":6019:6020   */\n      0x04\n        /* \"#utility.yul\":6012:6027   */\n      mstore\n        /* \"#utility.yul\":6046:6050   */\n      0x24\n        /* \"#utility.yul\":6043:6044   */\n      0x00\n        /* \"#utility.yul\":6036:6051   */\n      revert\n        /* \"#utility.yul\":6063:6239   */\n    tag_36:\n        /* \"#utility.yul\":6095:6096   */\n      0x00\n        /* \"#utility.yul\":6112:6132   */\n      tag_130\n        /* \"#utility.yul\":6130:6131   */\n      dup3\n        /* \"#utility.yul\":6112:6132   */\n      tag_69\n      jump\t// in\n    tag_130:\n        /* \"#utility.yul\":6107:6132   */\n      swap2\n      pop\n        /* \"#utility.yul\":6146:6166   */\n      tag_131\n        /* \"#utility.yul\":6164:6165   */\n      dup4\n        /* \"#utility.yul\":6146:6166   */\n      tag_69\n      jump\t// in\n    tag_131:\n        /* \"#utility.yul\":6141:6166   */\n      swap3\n      pop\n        /* \"#utility.yul\":6185:6186   */\n      dup3\n        /* \"#utility.yul\":6175:6210   */\n      tag_132\n      jumpi\n        /* \"#utility.yul\":6190:6208   */\n      tag_133\n      tag_79\n      jump\t// in\n    tag_133:\n        /* \"#utility.yul\":6175:6210   */\n    tag_132:\n        /* \"#utility.yul\":6231:6232   */\n      dup3\n        /* \"#utility.yul\":6228:6229   */\n      dup3\n        /* \"#utility.yul\":6224:6233   */\n      mod\n        /* \"#utility.yul\":6219:6233   */\n      swap1\n      pop\n        /* \"#utility.yul\":6063:6239   */\n      swap3\n      swap2\n      pop\n      pop\n      jump\t// out\n        /* \"#utility.yul\":6245:6425   */\n    tag_39:\n        /* \"#utility.yul\":6293:6370   */\n      0x4e487b7100000000000000000000000000000000000000000000000000000000\n        /* \"#utility.yul\":6290:6291   */\n      0x00\n        /* \"#utility.yul\":6283:6371   */\n      mstore\n        /* \"#utility.yul\":6390:6394   */\n      0x32\n        /* \"#utility.yul\":6387:6388   */\n      0x04\n        /* \"#utility.yul\":6380:6395   */\n      mstore\n        /* \"#utility.yul\":6414:6418   */\n      0x24\n        /* \"#utility.yul\":6411:6412   */\n      0x00\n        /* \"#utility.yul\":6404:6419   */\n      revert\n        /* \"#utility.yul\":6431:6611   */\n    tag_47:\n        /* \"#utility.yul\":6479:6556   */\n      0x4e487b7100000000000000000000000000000000000000000000000000000000\n        /* \"#utility.yul\":6476:6477   */\n      0x00\n        /* \"#utility.yul\":6469:6557   */\n      mstore\n        /* \"#utility.yul\":6576:6580   */\n      0x41\n        /* \"#utility.yul\":6573:6574   */\n      0x04\n        /* \"#utility.yul\":6566:6581   */\n      mstore\n        /* \"#utility.yul\":6600:6604   */\n      0x24\n        /* \"#utility.yul\":6597:6598   */\n      0x00\n        /* \"#utility.yul\":6590:6605   */\n      revert\n        /* \"#utility.yul\":6617:6696   */\n    tag_80:\n        /* \"#utility.yul\":6656:6663   */\n      0x00\n        /* \"#utility.yul\":6685:6690   */\n      dup2\n        /* \"#utility.yul\":6674:6690   */\n      swap1\n      pop\n        /* \"#utility.yul\":6617:6696   */\n      swap2\n      swap1\n      pop\n      jump\t// out\n        /* \"#utility.yul\":6702:6859   */\n    tag_81:\n        /* \"#utility.yul\":6807:6852   */\n      tag_138\n        /* \"#utility.yul\":6827:6851   */\n      tag_139\n        /* \"#utility.yul\":6845:6850   */\n      dup3\n        /* \"#utility.yul\":6827:6851   */\n      tag_69\n      jump\t// in\n    tag_139:\n        /* \"#utility.yul\":6807:6852   */\n      tag_80\n      jump\t// in\n    tag_138:\n        /* \"#utility.yul\":6802:6805   */\n      dup3\n        /* \"#utility.yul\":6795:6853   */\n      mstore\n        /* \"#utility.yul\":6702:6859   */\n      pop\n      pop\n      jump\t// out\n        /* \"#utility.yul\":6865:7403   */\n    tag_53:\n        /* \"#utility.yul\":7033:7036   */\n      0x00\n        /* \"#utility.yul\":7048:7123   */\n      tag_141\n        /* \"#utility.yul\":7119:7122   */\n      dup3\n        /* \"#utility.yul\":7110:7116   */\n      dup7\n        /* \"#utility.yul\":7048:7123   */\n      tag_81\n      jump\t// in\n    tag_141:\n        /* \"#utility.yul\":7148:7150   */\n      0x20\n        /* \"#utility.yul\":7143:7146   */\n      dup3\n        /* \"#utility.yul\":7139:7151   */\n      add\n        /* \"#utility.yul\":7132:7151   */\n      swap2\n      pop\n        /* \"#utility.yul\":7161:7236   */\n      tag_142\n        /* \"#utility.yul\":7232:7235   */\n      dup3\n        /* \"#utility.yul\":7223:7229   */\n      dup6\n        /* \"#utility.yul\":7161:7236   */\n      tag_81\n      jump\t// in\n    tag_142:\n        /* \"#utility.yul\":7261:7263   */\n      0x20\n        /* \"#utility.yul\":7256:7259   */\n      dup3\n        /* \"#utility.yul\":7252:7264   */\n      add\n        /* \"#utility.yul\":7245:7264   */\n      swap2\n      pop\n        /* \"#utility.yul\":7274:7349   */\n      tag_143\n        /* \"#utility.yul\":7345:7348   */\n      dup3\n        /* \"#utility.yul\":7336:7342   */\n      dup5\n        /* \"#utility.yul\":7274:7349   */\n      tag_81\n      jump\t// in\n    tag_143:\n        /* \"#utility.yul\":7374:7376   */\n      0x20\n        /* \"#utility.yul\":7369:7372   */\n      dup3\n        /* \"#utility.yul\":7365:7377   */\n      add\n        /* \"#utility.yul\":7358:7377   */\n      swap2\n      pop\n        /* \"#utility.yul\":7394:7397   */\n      dup2\n        /* \"#utility.yul\":7387:7397   */\n      swap1\n      pop\n        /* \"#utility.yul\":6865:7403   */\n      swap5\n      swap4\n      pop\n      pop\n      pop\n      pop\n      jump\t// out\n\n    auxdata: 0xa2646970667358221220061c3a80a30a8ae470592e424eb2425362862660511696be4d3985d34d65247a64736f6c63430008110033\n}\n",
				"bytecode": {
					"linkReferences": {},
					"object": "608060405273dd870fa1b7c4700f2bd7f44238821c26f7392148600260006101000a81548173ffffffffffffffffffffffffffffffffffffffff021916908373ffffffffffffffffffffffffffffffffffffffff16021790555034801561006557600080fd5b5033600160006101000a81548173ffffffffffffffffffffffffffffffffffffffff021916908373ffffffffffffffffffffffffffffffffffffffff160217905550610961806100b66000396000f3fe60806040526004361061002d5760003560e01c806335c1d34914610175578063b2b98ed2146101b257610170565b3661017057670de0b6b3a7640000341461007c576040517f08c379a0000000000000000000000000000000000000000000000000000000008152600401610073906105c1565b60405180910390fd5b600160009054906101000a900473ffffffffffffffffffffffffffffffffffffffff1673ffffffffffffffffffffffffffffffffffffffff163373ffffffffffffffffffffffffffffffffffffffff160361010c576040517f08c379a00000000000000000000000000000000000000000000000000000000081526004016101039061062d565b60405180910390fd5b6000339080600181540180825580915050600190039060005260206000200160009091909190916101000a81548173ffffffffffffffffffffffffffffffffffffffff021916908373ffffffffffffffffffffffffffffffffffffffff1602179055005b600080fd5b34801561018157600080fd5b5061019c60048036038101906101979190610688565b6101c9565b6040516101a991906106f6565b60405180910390f35b3480156101be57600080fd5b506101c7610208565b005b600081815481106101d957600080fd5b906000526020600020016000915054906101000a900473ffffffffffffffffffffffffffffffffffffffff1681565b600160009054906101000a900473ffffffffffffffffffffffffffffffffffffffff1673ffffffffffffffffffffffffffffffffffffffff163373ffffffffffffffffffffffffffffffffffffffff1614610298576040517f08c379a000000000000000000000000000000000000000000000000000000000815260040161028f9061075d565b60405180910390fd5b600260008054905010156102e1576040517f08c379a00000000000000000000000000000000000000000000000000000000081526004016102d8906107ef565b60405180910390fd5b6000806000805490506102f261045d565b6102fc919061083e565b8154811061030d5761030c61086f565b5b9060005260206000200160009054906101000a900473ffffffffffffffffffffffffffffffffffffffff1690508073ffffffffffffffffffffffffffffffffffffffff166108fc6718fae27693b400009081150290604051600060405180830381858888f19350505050158015610388573d6000803e3d6000fd5b50600260009054906101000a900473ffffffffffffffffffffffffffffffffffffffff1673ffffffffffffffffffffffffffffffffffffffff166108fc6702c68af0bb1400009081150290604051600060405180830381858888f193505050501580156103f9573d6000803e3d6000fd5b50600067ffffffffffffffff8111156104155761041461089e565b5b6040519080825280602002602001820160405280156104435781602001602082028036833780820191505090505b5060009080519060200190610459929190610497565b5050565b60004442600080549050604051602001610479939291906108ee565b6040516020818303038152906040528051906020012060001c905090565b828054828255906000526020600020908101928215610510579160200282015b8281111561050f5782518260006101000a81548173ffffffffffffffffffffffffffffffffffffffff021916908373ffffffffffffffffffffffffffffffffffffffff160217905550916020019190600101906104b7565b5b50905061051d9190610521565b5090565b5b8082111561053a576000816000905550600101610522565b5090565b600082825260208201905092915050565b7f657861637420312045746865722069732074686520706172746963697061746960008201527f6f6e206665650000000000000000000000000000000000000000000000000000602082015250565b60006105ab60268361053e565b91506105b68261054f565b604082019050919050565b600060208201905081810360008301526105da8161059e565b9050919050565b7f41646d696e2063616e6e6f742070617274696369706174652100000000000000600082015250565b600061061760198361053e565b9150610622826105e1565b602082019050919050565b600060208201905081810360008301526106468161060a565b9050919050565b600080fd5b6000819050919050565b61066581610652565b811461067057600080fd5b50565b6000813590506106828161065c565b92915050565b60006020828403121561069e5761069d61064d565b5b60006106ac84828501610673565b91505092915050565b600073ffffffffffffffffffffffffffffffffffffffff82169050919050565b60006106e0826106b5565b9050919050565b6106f0816106d5565b82525050565b600060208201905061070b60008301846106e7565b92915050565b7f596f7520617265206e6f74207468652061646d696e2100000000000000000000600082015250565b600061074760168361053e565b915061075282610711565b602082019050919050565b600060208201905081810360008301526107768161073a565b9050919050565b7f4e6f7420656e6f756768207061727469636970616e747320617265207061727460008201527f696369706174696e6720696e20746865206c6f74746572790000000000000000602082015250565b60006107d960388361053e565b91506107e48261077d565b604082019050919050565b60006020820190508181036000830152610808816107cc565b9050919050565b7f4e487b7100000000000000000000000000000000000000000000000000000000600052601260045260246000fd5b600061084982610652565b915061085483610652565b9250826108645761086361080f565b5b828206905092915050565b7f4e487b7100000000000000000000000000000000000000000000000000000000600052603260045260246000fd5b7f4e487b7100000000000000000000000000000000000000000000000000000000600052604160045260246000fd5b6000819050919050565b6108e86108e382610652565b6108cd565b82525050565b60006108fa82866108d7565b60208201915061090a82856108d7565b60208201915061091a82846108d7565b60208201915081905094935050505056fea2646970667358221220061c3a80a30a8ae470592e424eb2425362862660511696be4d3985d34d65247a64736f6c63430008110033",
					"opcodes": "PUSH1 0x80 PUSH1 0x40 MSTORE PUSH20 0xDD870FA1B7C4700F2BD7F44238821C26F7392148 PUSH1 0x2 PUSH1 0x0 PUSH2 0x100 EXP DUP2 SLOAD DUP2 PUSH20 0xFFFFFFFFFFFFFFFFFFFFFFFFFFFFFFFFFFFFFFFF MUL NOT AND SWAP1 DUP4 PUSH20 0xFFFFFFFFFFFFFFFFFFFFFFFFFFFFFFFFFFFFFFFF AND MUL OR SWAP1 SSTORE POP CALLVALUE DUP1 ISZERO PUSH2 0x65 JUMPI PUSH1 0x0 DUP1 REVERT JUMPDEST POP CALLER PUSH1 0x1 PUSH1 0x0 PUSH2 0x100 EXP DUP2 SLOAD DUP2 PUSH20 0xFFFFFFFFFFFFFFFFFFFFFFFFFFFFFFFFFFFFFFFF MUL NOT AND SWAP1 DUP4 PUSH20 0xFFFFFFFFFFFFFFFFFFFFFFFFFFFFFFFFFFFFFFFF AND MUL OR SWAP1 SSTORE POP PUSH2 0x961 DUP1 PUSH2 0xB6 PUSH1 0x0 CODECOPY PUSH1 0x0 RETURN INVALID PUSH1 0x80 PUSH1 0x40 MSTORE PUSH1 0x4 CALLDATASIZE LT PUSH2 0x2D JUMPI PUSH1 0x0 CALLDATALOAD PUSH1 0xE0 SHR DUP1 PUSH4 0x35C1D349 EQ PUSH2 0x175 JUMPI DUP1 PUSH4 0xB2B98ED2 EQ PUSH2 0x1B2 JUMPI PUSH2 0x170 JUMP JUMPDEST CALLDATASIZE PUSH2 0x170 JUMPI PUSH8 0xDE0B6B3A7640000 CALLVALUE EQ PUSH2 0x7C JUMPI PUSH1 0x40 MLOAD PUSH32 0x8C379A000000000000000000000000000000000000000000000000000000000 DUP2 MSTORE PUSH1 0x4 ADD PUSH2 0x73 SWAP1 PUSH2 0x5C1 JUMP JUMPDEST PUSH1 0x40 MLOAD DUP1 SWAP2 SUB SWAP1 REVERT JUMPDEST PUSH1 0x1 PUSH1 0x0 SWAP1 SLOAD SWAP1 PUSH2 0x100 EXP SWAP1 DIV PUSH20 0xFFFFFFFFFFFFFFFFFFFFFFFFFFFFFFFFFFFFFFFF AND PUSH20 0xFFFFFFFFFFFFFFFFFFFFFFFFFFFFFFFFFFFFFFFF AND CALLER PUSH20 0xFFFFFFFFFFFFFFFFFFFFFFFFFFFFFFFFFFFFFFFF AND SUB PUSH2 0x10C JUMPI PUSH1 0x40 MLOAD PUSH32 0x8C379A000000000000000000000000000000000000000000000000000000000 DUP2 MSTORE PUSH1 0x4 ADD PUSH2 0x103 SWAP1 PUSH2 0x62D JUMP JUMPDEST PUSH1 0x40 MLOAD DUP1 SWAP2 SUB SWAP1 REVERT JUMPDEST PUSH1 0x0 CALLER SWAP1 DUP1 PUSH1 0x1 DUP2 SLOAD ADD DUP1 DUP3 SSTORE DUP1 SWAP2 POP POP PUSH1 0x1 SWAP1 SUB SWAP1 PUSH1 0x0 MSTORE PUSH1 0x20 PUSH1 0x0 KECCAK256 ADD PUSH1 0x0 SWAP1 SWAP2 SWAP1 SWAP2 SWAP1 SWAP2 PUSH2 0x100 EXP DUP2 SLOAD DUP2 PUSH20 0xFFFFFFFFFFFFFFFFFFFFFFFFFFFFFFFFFFFFFFFF MUL NOT AND SWAP1 DUP4 PUSH20 0xFFFFFFFFFFFFFFFFFFFFFFFFFFFFFFFFFFFFFFFF AND MUL OR SWAP1 SSTORE STOP JUMPDEST PUSH1 0x0 DUP1 REVERT JUMPDEST CALLVALUE DUP1 ISZERO PUSH2 0x181 JUMPI PUSH1 0x0 DUP1 REVERT JUMPDEST POP PUSH2 0x19C PUSH1 0x4 DUP1 CALLDATASIZE SUB DUP2 ADD SWAP1 PUSH2 0x197 SWAP2 SWAP1 PUSH2 0x688 JUMP JUMPDEST PUSH2 0x1C9 JUMP JUMPDEST PUSH1 0x40 MLOAD PUSH2 0x1A9 SWAP2 SWAP1 PUSH2 0x6F6 JUMP JUMPDEST PUSH1 0x40 MLOAD DUP1 SWAP2 SUB SWAP1 RETURN JUMPDEST CALLVALUE DUP1 ISZERO PUSH2 0x1BE JUMPI PUSH1 0x0 DUP1 REVERT JUMPDEST POP PUSH2 0x1C7 PUSH2 0x208 JUMP JUMPDEST STOP JUMPDEST PUSH1 0x0 DUP2 DUP2 SLOAD DUP2 LT PUSH2 0x1D9 JUMPI PUSH1 0x0 DUP1 REVERT JUMPDEST SWAP1 PUSH1 0x0 MSTORE PUSH1 0x20 PUSH1 0x0 KECCAK256 ADD PUSH1 0x0 SWAP2 POP SLOAD SWAP1 PUSH2 0x100 EXP SWAP1 DIV PUSH20 0xFFFFFFFFFFFFFFFFFFFFFFFFFFFFFFFFFFFFFFFF AND DUP2 JUMP JUMPDEST PUSH1 0x1 PUSH1 0x0 SWAP1 SLOAD SWAP1 PUSH2 0x100 EXP SWAP1 DIV PUSH20 0xFFFFFFFFFFFFFFFFFFFFFFFFFFFFFFFFFFFFFFFF AND PUSH20 0xFFFFFFFFFFFFFFFFFFFFFFFFFFFFFFFFFFFFFFFF AND CALLER PUSH20 0xFFFFFFFFFFFFFFFFFFFFFFFFFFFFFFFFFFFFFFFF AND EQ PUSH2 0x298 JUMPI PUSH1 0x40 MLOAD PUSH32 0x8C379A000000000000000000000000000000000000000000000000000000000 DUP2 MSTORE PUSH1 0x4 ADD PUSH2 0x28F SWAP1 PUSH2 0x75D JUMP JUMPDEST PUSH1 0x40 MLOAD DUP1 SWAP2 SUB SWAP1 REVERT JUMPDEST PUSH1 0x2 PUSH1 0x0 DUP1 SLOAD SWAP1 POP LT ISZERO PUSH2 0x2E1 JUMPI PUSH1 0x40 MLOAD PUSH32 0x8C379A000000000000000000000000000000000000000000000000000000000 DUP2 MSTORE PUSH1 0x4 ADD PUSH2 0x2D8 SWAP1 PUSH2 0x7EF JUMP JUMPDEST PUSH1 0x40 MLOAD DUP1 SWAP2 SUB SWAP1 REVERT JUMPDEST PUSH1 0x0 DUP1 PUSH1 0x0 DUP1 SLOAD SWAP1 POP PUSH2 0x2F2 PUSH2 0x45D JUMP JUMPDEST PUSH2 0x2FC SWAP2 SWAP1 PUSH2 0x83E JUMP JUMPDEST DUP2 SLOAD DUP2 LT PUSH2 0x30D JUMPI PUSH2 0x30C PUSH2 0x86F JUMP JUMPDEST JUMPDEST SWAP1 PUSH1 0x0 MSTORE PUSH1 0x20 PUSH1 0x0 KECCAK256 ADD PUSH1 0x0 SWAP1 SLOAD SWAP1 PUSH2 0x100 EXP SWAP1 DIV PUSH20 0xFFFFFFFFFFFFFFFFFFFFFFFFFFFFFFFFFFFFFFFF AND SWAP1 POP DUP1 PUSH20 0xFFFFFFFFFFFFFFFFFFFFFFFFFFFFFFFFFFFFFFFF AND PUSH2 0x8FC PUSH8 0x18FAE27693B40000 SWAP1 DUP2 ISZERO MUL SWAP1 PUSH1 0x40 MLOAD PUSH1 0x0 PUSH1 0x40 MLOAD DUP1 DUP4 SUB DUP2 DUP6 DUP9 DUP9 CALL SWAP4 POP POP POP POP ISZERO DUP1 ISZERO PUSH2 0x388 JUMPI RETURNDATASIZE PUSH1 0x0 DUP1 RETURNDATACOPY RETURNDATASIZE PUSH1 0x0 REVERT JUMPDEST POP PUSH1 0x2 PUSH1 0x0 SWAP1 SLOAD SWAP1 PUSH2 0x100 EXP SWAP1 DIV PUSH20 0xFFFFFFFFFFFFFFFFFFFFFFFFFFFFFFFFFFFFFFFF AND PUSH20 0xFFFFFFFFFFFFFFFFFFFFFFFFFFFFFFFFFFFFFFFF AND PUSH2 0x8FC PUSH8 0x2C68AF0BB140000 SWAP1 DUP2 ISZERO MUL SWAP1 PUSH1 0x40 MLOAD PUSH1 0x0 PUSH1 0x40 MLOAD DUP1 DUP4 SUB DUP2 DUP6 DUP9 DUP9 CALL SWAP4 POP POP POP POP ISZERO DUP1 ISZERO PUSH2 0x3F9 JUMPI RETURNDATASIZE PUSH1 0x0 DUP1 RETURNDATACOPY RETURNDATASIZE PUSH1 0x0 REVERT JUMPDEST POP PUSH1 0x0 PUSH8 0xFFFFFFFFFFFFFFFF DUP2 GT ISZERO PUSH2 0x415 JUMPI PUSH2 0x414 PUSH2 0x89E JUMP JUMPDEST JUMPDEST PUSH1 0x40 MLOAD SWAP1 DUP1 DUP3 MSTORE DUP1 PUSH1 0x20 MUL PUSH1 0x20 ADD DUP3 ADD PUSH1 0x40 MSTORE DUP1 ISZERO PUSH2 0x443 JUMPI DUP2 PUSH1 0x20 ADD PUSH1 0x20 DUP3 MUL DUP1 CALLDATASIZE DUP4 CALLDATACOPY DUP1 DUP3 ADD SWAP2 POP POP SWAP1 POP JUMPDEST POP PUSH1 0x0 SWAP1 DUP1 MLOAD SWAP1 PUSH1 0x20 ADD SWAP1 PUSH2 0x459 SWAP3 SWAP2 SWAP1 PUSH2 0x497 JUMP JUMPDEST POP POP JUMP JUMPDEST PUSH1 0x0 DIFFICULTY TIMESTAMP PUSH1 0x0 DUP1 SLOAD SWAP1 POP PUSH1 0x40 MLOAD PUSH1 0x20 ADD PUSH2 0x479 SWAP4 SWAP3 SWAP2 SWAP1 PUSH2 0x8EE JUMP JUMPDEST PUSH1 0x40 MLOAD PUSH1 0x20 DUP2 DUP4 SUB SUB DUP2 MSTORE SWAP1 PUSH1 0x40 MSTORE DUP1 MLOAD SWAP1 PUSH1 0x20 ADD KECCAK256 PUSH1 0x0 SHR SWAP1 POP SWAP1 JUMP JUMPDEST DUP3 DUP1 SLOAD DUP3 DUP3 SSTORE SWAP1 PUSH1 0x0 MSTORE PUSH1 0x20 PUSH1 0x0 KECCAK256 SWAP1 DUP2 ADD SWAP3 DUP3 ISZERO PUSH2 0x510 JUMPI SWAP2 PUSH1 0x20 MUL DUP3 ADD JUMPDEST DUP3 DUP2 GT ISZERO PUSH2 0x50F JUMPI DUP3 MLOAD DUP3 PUSH1 0x0 PUSH2 0x100 EXP DUP2 SLOAD DUP2 PUSH20 0xFFFFFFFFFFFFFFFFFFFFFFFFFFFFFFFFFFFFFFFF MUL NOT AND SWAP1 DUP4 PUSH20 0xFFFFFFFFFFFFFFFFFFFFFFFFFFFFFFFFFFFFFFFF AND MUL OR SWAP1 SSTORE POP SWAP2 PUSH1 0x20 ADD SWAP2 SWAP1 PUSH1 0x1 ADD SWAP1 PUSH2 0x4B7 JUMP JUMPDEST JUMPDEST POP SWAP1 POP PUSH2 0x51D SWAP2 SWAP1 PUSH2 0x521 JUMP JUMPDEST POP SWAP1 JUMP JUMPDEST JUMPDEST DUP1 DUP3 GT ISZERO PUSH2 0x53A JUMPI PUSH1 0x0 DUP2 PUSH1 0x0 SWAP1 SSTORE POP PUSH1 0x1 ADD PUSH2 0x522 JUMP JUMPDEST POP SWAP1 JUMP JUMPDEST PUSH1 0x0 DUP3 DUP3 MSTORE PUSH1 0x20 DUP3 ADD SWAP1 POP SWAP3 SWAP2 POP POP JUMP JUMPDEST PUSH32 0x6578616374203120457468657220697320746865207061727469636970617469 PUSH1 0x0 DUP3 ADD MSTORE PUSH32 0x6F6E206665650000000000000000000000000000000000000000000000000000 PUSH1 0x20 DUP3 ADD MSTORE POP JUMP JUMPDEST PUSH1 0x0 PUSH2 0x5AB PUSH1 0x26 DUP4 PUSH2 0x53E JUMP JUMPDEST SWAP2 POP PUSH2 0x5B6 DUP3 PUSH2 0x54F JUMP JUMPDEST PUSH1 0x40 DUP3 ADD SWAP1 POP SWAP2 SWAP1 POP JUMP JUMPDEST PUSH1 0x0 PUSH1 0x20 DUP3 ADD SWAP1 POP DUP2 DUP2 SUB PUSH1 0x0 DUP4 ADD MSTORE PUSH2 0x5DA DUP2 PUSH2 0x59E JUMP JUMPDEST SWAP1 POP SWAP2 SWAP1 POP JUMP JUMPDEST PUSH32 0x41646D696E2063616E6E6F742070617274696369706174652100000000000000 PUSH1 0x0 DUP3 ADD MSTORE POP JUMP JUMPDEST PUSH1 0x0 PUSH2 0x617 PUSH1 0x19 DUP4 PUSH2 0x53E JUMP JUMPDEST SWAP2 POP PUSH2 0x622 DUP3 PUSH2 0x5E1 JUMP JUMPDEST PUSH1 0x20 DUP3 ADD SWAP1 POP SWAP2 SWAP1 POP JUMP JUMPDEST PUSH1 0x0 PUSH1 0x20 DUP3 ADD SWAP1 POP DUP2 DUP2 SUB PUSH1 0x0 DUP4 ADD MSTORE PUSH2 0x646 DUP2 PUSH2 0x60A JUMP JUMPDEST SWAP1 POP SWAP2 SWAP1 POP JUMP JUMPDEST PUSH1 0x0 DUP1 REVERT JUMPDEST PUSH1 0x0 DUP2 SWAP1 POP SWAP2 SWAP1 POP JUMP JUMPDEST PUSH2 0x665 DUP2 PUSH2 0x652 JUMP JUMPDEST DUP2 EQ PUSH2 0x670 JUMPI PUSH1 0x0 DUP1 REVERT JUMPDEST POP JUMP JUMPDEST PUSH1 0x0 DUP2 CALLDATALOAD SWAP1 POP PUSH2 0x682 DUP2 PUSH2 0x65C JUMP JUMPDEST SWAP3 SWAP2 POP POP JUMP JUMPDEST PUSH1 0x0 PUSH1 0x20 DUP3 DUP5 SUB SLT ISZERO PUSH2 0x69E JUMPI PUSH2 0x69D PUSH2 0x64D JUMP JUMPDEST JUMPDEST PUSH1 0x0 PUSH2 0x6AC DUP5 DUP3 DUP6 ADD PUSH2 0x673 JUMP JUMPDEST SWAP2 POP POP SWAP3 SWAP2 POP POP JUMP JUMPDEST PUSH1 0x0 PUSH20 0xFFFFFFFFFFFFFFFFFFFFFFFFFFFFFFFFFFFFFFFF DUP3 AND SWAP1 POP SWAP2 SWAP1 POP JUMP JUMPDEST PUSH1 0x0 PUSH2 0x6E0 DUP3 PUSH2 0x6B5 JUMP JUMPDEST SWAP1 POP SWAP2 SWAP1 POP JUMP JUMPDEST PUSH2 0x6F0 DUP2 PUSH2 0x6D5 JUMP JUMPDEST DUP3 MSTORE POP POP JUMP JUMPDEST PUSH1 0x0 PUSH1 0x20 DUP3 ADD SWAP1 POP PUSH2 0x70B PUSH1 0x0 DUP4 ADD DUP5 PUSH2 0x6E7 JUMP JUMPDEST SWAP3 SWAP2 POP POP JUMP JUMPDEST PUSH32 0x596F7520617265206E6F74207468652061646D696E2100000000000000000000 PUSH1 0x0 DUP3 ADD MSTORE POP JUMP JUMPDEST PUSH1 0x0 PUSH2 0x747 PUSH1 0x16 DUP4 PUSH2 0x53E JUMP JUMPDEST SWAP2 POP PUSH2 0x752 DUP3 PUSH2 0x711 JUMP JUMPDEST PUSH1 0x20 DUP3 ADD SWAP1 POP SWAP2 SWAP1 POP JUMP JUMPDEST PUSH1 0x0 PUSH1 0x20 DUP3 ADD SWAP1 POP DUP2 DUP2 SUB PUSH1 0x0 DUP4 ADD MSTORE PUSH2 0x776 DUP2 PUSH2 0x73A JUMP JUMPDEST SWAP1 POP SWAP2 SWAP1 POP JUMP JUMPDEST PUSH32 0x4E6F7420656E6F756768207061727469636970616E7473206172652070617274 PUSH1 0x0 DUP3 ADD MSTORE PUSH32 0x696369706174696E6720696E20746865206C6F74746572790000000000000000 PUSH1 0x20 DUP3 ADD MSTORE POP JUMP JUMPDEST PUSH1 0x0 PUSH2 0x7D9 PUSH1 0x38 DUP4 PUSH2 0x53E JUMP JUMPDEST SWAP2 POP PUSH2 0x7E4 DUP3 PUSH2 0x77D JUMP JUMPDEST PUSH1 0x40 DUP3 ADD SWAP1 POP SWAP2 SWAP1 POP JUMP JUMPDEST PUSH1 0x0 PUSH1 0x20 DUP3 ADD SWAP1 POP DUP2 DUP2 SUB PUSH1 0x0 DUP4 ADD MSTORE PUSH2 0x808 DUP2 PUSH2 0x7CC JUMP JUMPDEST SWAP1 POP SWAP2 SWAP1 POP JUMP JUMPDEST PUSH32 0x4E487B7100000000000000000000000000000000000000000000000000000000 PUSH1 0x0 MSTORE PUSH1 0x12 PUSH1 0x4 MSTORE PUSH1 0x24 PUSH1 0x0 REVERT JUMPDEST PUSH1 0x0 PUSH2 0x849 DUP3 PUSH2 0x652 JUMP JUMPDEST SWAP2 POP PUSH2 0x854 DUP4 PUSH2 0x652 JUMP JUMPDEST SWAP3 POP DUP3 PUSH2 0x864 JUMPI PUSH2 0x863 PUSH2 0x80F JUMP JUMPDEST JUMPDEST DUP3 DUP3 MOD SWAP1 POP SWAP3 SWAP2 POP POP JUMP JUMPDEST PUSH32 0x4E487B7100000000000000000000000000000000000000000000000000000000 PUSH1 0x0 MSTORE PUSH1 0x32 PUSH1 0x4 MSTORE PUSH1 0x24 PUSH1 0x0 REVERT JUMPDEST PUSH32 0x4E487B7100000000000000000000000000000000000000000000000000000000 PUSH1 0x0 MSTORE PUSH1 0x41 PUSH1 0x4 MSTORE PUSH1 0x24 PUSH1 0x0 REVERT JUMPDEST PUSH1 0x0 DUP2 SWAP1 POP SWAP2 SWAP1 POP JUMP JUMPDEST PUSH2 0x8E8 PUSH2 0x8E3 DUP3 PUSH2 0x652 JUMP JUMPDEST PUSH2 0x8CD JUMP JUMPDEST DUP3 MSTORE POP POP JUMP JUMPDEST PUSH1 0x0 PUSH2 0x8FA DUP3 DUP7 PUSH2 0x8D7 JUMP JUMPDEST PUSH1 0x20 DUP3 ADD SWAP2 POP PUSH2 0x90A DUP3 DUP6 PUSH2 0x8D7 JUMP JUMPDEST PUSH1 0x20 DUP3 ADD SWAP2 POP PUSH2 0x91A DUP3 DUP5 PUSH2 0x8D7 JUMP JUMPDEST PUSH1 0x20 DUP3 ADD SWAP2 POP DUP2 SWAP1 POP SWAP5 SWAP4 POP POP POP POP JUMP INVALID LOG2 PUSH5 0x6970667358 0x22 SLT KECCAK256 MOD SHR GASPRICE DUP1 LOG3 EXP DUP11 0xE4 PUSH17 0x592E424EB2425362862660511696BE4D39 DUP6 0xD3 0x4D PUSH6 0x247A64736F6C PUSH4 0x43000811 STOP CALLER "
				},
				"gasEstimates": {
					"creation": {
						"codeDepositCost": "480200",
						"executionCost": "49051",
						"totalCost": "529251"
					},
					"external": {
						"Winner()": "infinite",
						"participants(uint256)": "4934"
					},
					"internal": {
						"random()": "infinite"
					}
				},
				"methodIdentifiers": {
					"Winner()": "b2b98ed2",
					"participants(uint256)": "35c1d349"
				}
			},
			"storageLayout": {
				"storage": [
					{
						"astId": 4,
						"contract": "contracts/lottery.sol:Lottery",
						"label": "participants",
						"offset": 0,
						"slot": "0",
						"type": "t_array(t_address_payable)dyn_storage"
					},
					{
						"astId": 6,
						"contract": "contracts/lottery.sol:Lottery",
						"label": "admin",
						"offset": 0,
						"slot": "1",
						"type": "t_address_payable"
					},
					{
						"astId": 12,
						"contract": "contracts/lottery.sol:Lottery",
						"label": "store",
						"offset": 0,
						"slot": "2",
						"type": "t_address_payable"
					}
				],
				"types": {
					"t_address_payable": {
						"encoding": "inplace",
						"label": "address payable",
						"numberOfBytes": "20"
					},
					"t_array(t_address_payable)dyn_storage": {
						"base": "t_address_payable",
						"encoding": "dynamic_array",
						"label": "address payable[]",
						"numberOfBytes": "32"
					}
				}
			},
			"userdoc": {
				"kind": "user",
				"methods": {},
				"version": 1
			}
		}
	}
}